{
  "_format": "hh-sol-artifact-1",
  "contractName": "PolygonNFT",
  "sourceName": "contracts/PolygonNFT.sol",
  "abi": [
    {
      "inputs": [
        {
          "internalType": "address",
          "name": "initialOwner",
          "type": "address"
        },
        {
          "internalType": "uint256",
          "name": "initialPrice",
          "type": "uint256"
        },
        {
          "internalType": "string",
          "name": "baseURI",
          "type": "string"
        }
      ],
      "stateMutability": "nonpayable",
      "type": "constructor"
    },
    {
      "inputs": [
        {
          "internalType": "uint256",
          "name": "required",
          "type": "uint256"
        },
        {
          "internalType": "uint256",
          "name": "sent",
          "type": "uint256"
        }
      ],
      "name": "InsufficientPayment",
      "type": "error"
    },
    {
      "inputs": [],
      "name": "MaxSupplyReached",
      "type": "error"
    },
    {
      "inputs": [],
      "name": "WithdrawFailed",
      "type": "error"
    },
    {
      "inputs": [],
      "name": "ZeroAddress",
      "type": "error"
    },
    {
      "inputs": [],
      "name": "ZeroPrice",
      "type": "error"
    },
    {
      "anonymous": false,
      "inputs": [
        {
          "indexed": true,
          "internalType": "address",
          "name": "owner",
          "type": "address"
        },
        {
          "indexed": true,
          "internalType": "address",
          "name": "approved",
          "type": "address"
        },
        {
          "indexed": true,
          "internalType": "uint256",
          "name": "tokenId",
          "type": "uint256"
        }
      ],
      "name": "Approval",
      "type": "event"
    },
    {
      "anonymous": false,
      "inputs": [
        {
          "indexed": true,
          "internalType": "address",
          "name": "owner",
          "type": "address"
        },
        {
          "indexed": true,
          "internalType": "address",
          "name": "operator",
          "type": "address"
        },
        {
          "indexed": false,
          "internalType": "bool",
          "name": "approved",
          "type": "bool"
        }
      ],
      "name": "ApprovalForAll",
      "type": "event"
    },
    {
      "anonymous": false,
      "inputs": [
        {
          "indexed": false,
          "internalType": "string",
          "name": "newBaseURI",
          "type": "string"
        }
      ],
      "name": "BaseURIUpdated",
      "type": "event"
    },
    {
      "anonymous": false,
      "inputs": [
        {
          "indexed": true,
          "internalType": "address",
          "name": "to",
          "type": "address"
        },
        {
          "indexed": false,
          "internalType": "uint256",
          "name": "amount",
          "type": "uint256"
        }
      ],
      "name": "FundsWithdrawn",
      "type": "event"
    },
    {
      "anonymous": false,
      "inputs": [
        {
          "indexed": false,
          "internalType": "uint256",
          "name": "oldPrice",
          "type": "uint256"
        },
        {
          "indexed": false,
          "internalType": "uint256",
          "name": "newPrice",
          "type": "uint256"
        }
      ],
      "name": "MintPriceUpdated",
      "type": "event"
    },
    {
      "anonymous": false,
      "inputs": [
        {
          "indexed": true,
          "internalType": "address",
          "name": "to",
          "type": "address"
        },
        {
          "indexed": true,
          "internalType": "uint256",
          "name": "tokenId",
          "type": "uint256"
        },
        {
          "indexed": false,
          "internalType": "uint256",
          "name": "price",
          "type": "uint256"
        }
      ],
      "name": "NFTMinted",
      "type": "event"
    },
    {
      "anonymous": false,
      "inputs": [
        {
          "indexed": true,
          "internalType": "address",
          "name": "previousOwner",
          "type": "address"
        },
        {
          "indexed": true,
          "internalType": "address",
          "name": "newOwner",
          "type": "address"
        }
      ],
      "name": "OwnershipTransferred",
      "type": "event"
    },
    {
      "anonymous": false,
      "inputs": [
        {
          "indexed": true,
          "internalType": "address",
          "name": "from",
          "type": "address"
        },
        {
          "indexed": true,
          "internalType": "address",
          "name": "to",
          "type": "address"
        },
        {
          "indexed": true,
          "internalType": "uint256",
          "name": "tokenId",
          "type": "uint256"
        }
      ],
      "name": "Transfer",
      "type": "event"
    },
    {
      "inputs": [],
      "name": "MAX_SUPPLY",
      "outputs": [
        {
          "internalType": "uint256",
          "name": "",
          "type": "uint256"
        }
      ],
      "stateMutability": "view",
      "type": "function"
    },
    {
      "inputs": [
        {
          "internalType": "address",
          "name": "to",
          "type": "address"
        },
        {
          "internalType": "uint256",
          "name": "tokenId",
          "type": "uint256"
        }
      ],
      "name": "approve",
      "outputs": [],
      "stateMutability": "nonpayable",
      "type": "function"
    },
    {
      "inputs": [
        {
          "internalType": "address",
          "name": "owner",
          "type": "address"
        }
      ],
      "name": "balanceOf",
      "outputs": [
        {
          "internalType": "uint256",
          "name": "",
          "type": "uint256"
        }
      ],
      "stateMutability": "view",
      "type": "function"
    },
    {
      "inputs": [
        {
          "internalType": "uint256",
          "name": "tokenId",
          "type": "uint256"
        }
      ],
      "name": "getApproved",
      "outputs": [
        {
          "internalType": "address",
          "name": "",
          "type": "address"
        }
      ],
      "stateMutability": "view",
      "type": "function"
    },
    {
      "inputs": [
        {
          "internalType": "address",
          "name": "owner",
          "type": "address"
        },
        {
          "internalType": "address",
          "name": "operator",
          "type": "address"
        }
      ],
      "name": "isApprovedForAll",
      "outputs": [
        {
          "internalType": "bool",
          "name": "",
          "type": "bool"
        }
      ],
      "stateMutability": "view",
      "type": "function"
    },
    {
      "inputs": [
        {
          "internalType": "address",
          "name": "to",
          "type": "address"
        }
      ],
      "name": "mint",
      "outputs": [],
      "stateMutability": "payable",
      "type": "function"
    },
    {
      "inputs": [],
      "name": "mintPrice",
      "outputs": [
        {
          "internalType": "uint256",
          "name": "",
          "type": "uint256"
        }
      ],
      "stateMutability": "view",
      "type": "function"
    },
    {
      "inputs": [],
      "name": "name",
      "outputs": [
        {
          "internalType": "string",
          "name": "",
          "type": "string"
        }
      ],
      "stateMutability": "view",
      "type": "function"
    },
    {
      "inputs": [],
      "name": "owner",
      "outputs": [
        {
          "internalType": "address",
          "name": "",
          "type": "address"
        }
      ],
      "stateMutability": "view",
      "type": "function"
    },
    {
      "inputs": [
        {
          "internalType": "uint256",
          "name": "tokenId",
          "type": "uint256"
        }
      ],
      "name": "ownerOf",
      "outputs": [
        {
          "internalType": "address",
          "name": "",
          "type": "address"
        }
      ],
      "stateMutability": "view",
      "type": "function"
    },
    {
      "inputs": [],
      "name": "remainingSupply",
      "outputs": [
        {
          "internalType": "uint256",
          "name": "",
          "type": "uint256"
        }
      ],
      "stateMutability": "view",
      "type": "function"
    },
    {
      "inputs": [],
      "name": "renounceOwnership",
      "outputs": [],
      "stateMutability": "nonpayable",
      "type": "function"
    },
    {
      "inputs": [
        {
          "internalType": "address",
          "name": "from",
          "type": "address"
        },
        {
          "internalType": "address",
          "name": "to",
          "type": "address"
        },
        {
          "internalType": "uint256",
          "name": "tokenId",
          "type": "uint256"
        }
      ],
      "name": "safeTransferFrom",
      "outputs": [],
      "stateMutability": "nonpayable",
      "type": "function"
    },
    {
      "inputs": [
        {
          "internalType": "address",
          "name": "from",
          "type": "address"
        },
        {
          "internalType": "address",
          "name": "to",
          "type": "address"
        },
        {
          "internalType": "uint256",
          "name": "tokenId",
          "type": "uint256"
        },
        {
          "internalType": "bytes",
          "name": "data",
          "type": "bytes"
        }
      ],
      "name": "safeTransferFrom",
      "outputs": [],
      "stateMutability": "nonpayable",
      "type": "function"
    },
    {
      "inputs": [
        {
          "internalType": "address",
          "name": "operator",
          "type": "address"
        },
        {
          "internalType": "bool",
          "name": "approved",
          "type": "bool"
        }
      ],
      "name": "setApprovalForAll",
      "outputs": [],
      "stateMutability": "nonpayable",
      "type": "function"
    },
    {
      "inputs": [
        {
          "internalType": "string",
          "name": "newBaseURI",
          "type": "string"
        }
      ],
      "name": "setBaseURI",
      "outputs": [],
      "stateMutability": "nonpayable",
      "type": "function"
    },
    {
      "inputs": [
        {
          "internalType": "uint256",
          "name": "newPrice",
          "type": "uint256"
        }
      ],
      "name": "setMintPrice",
      "outputs": [],
      "stateMutability": "nonpayable",
      "type": "function"
    },
    {
      "inputs": [
        {
          "internalType": "bytes4",
          "name": "interfaceId",
          "type": "bytes4"
        }
      ],
      "name": "supportsInterface",
      "outputs": [
        {
          "internalType": "bool",
          "name": "",
          "type": "bool"
        }
      ],
      "stateMutability": "view",
      "type": "function"
    },
    {
      "inputs": [],
      "name": "symbol",
      "outputs": [
        {
          "internalType": "string",
          "name": "",
          "type": "string"
        }
      ],
      "stateMutability": "view",
      "type": "function"
    },
    {
      "inputs": [
        {
          "internalType": "uint256",
          "name": "tokenId",
          "type": "uint256"
        }
      ],
      "name": "tokenURI",
      "outputs": [
        {
          "internalType": "string",
          "name": "",
          "type": "string"
        }
      ],
      "stateMutability": "view",
      "type": "function"
    },
    {
      "inputs": [],
      "name": "totalMinted",
      "outputs": [
        {
          "internalType": "uint256",
          "name": "",
          "type": "uint256"
        }
      ],
      "stateMutability": "view",
      "type": "function"
    },
    {
      "inputs": [
        {
          "internalType": "address",
          "name": "from",
          "type": "address"
        },
        {
          "internalType": "address",
          "name": "to",
          "type": "address"
        },
        {
          "internalType": "uint256",
          "name": "tokenId",
          "type": "uint256"
        }
      ],
      "name": "transferFrom",
      "outputs": [],
      "stateMutability": "nonpayable",
      "type": "function"
    },
    {
      "inputs": [
        {
          "internalType": "address",
          "name": "newOwner",
          "type": "address"
        }
      ],
      "name": "transferOwnership",
      "outputs": [],
      "stateMutability": "nonpayable",
      "type": "function"
    },
    {
      "inputs": [],
      "name": "withdraw",
      "outputs": [],
      "stateMutability": "nonpayable",
      "type": "function"
    }
  ],
  "bytecode": "0x60806040523480156200001157600080fd5b506040516200208c3803806200208c83398101604081905262000034916200018f565b6040518060400160405280600a815260200169141bdb1e59dbdb93919560b21b815250604051806040016040528060048152602001631413919560e21b81525081600090816200008591906200031d565b5060016200009482826200031d565b505050620000b1620000ab6200012360201b60201c565b62000127565b60016007556001600160a01b038316620000de5760405163d92e233d60e01b815260040160405180910390fd5b816000036200010057604051634dfba02360e01b815260040160405180910390fd5b6008829055600a6200011382826200031d565b5050600160095550620003e99050565b3390565b600680546001600160a01b038381166001600160a01b0319831681179093556040519116919082907f8be0079c531659141344cd1fd0a4f28419497f9722a3daafe3b4186f6b6457e090600090a35050565b634e487b7160e01b600052604160045260246000fd5b600080600060608486031215620001a557600080fd5b83516001600160a01b0381168114620001bd57600080fd5b60208581015160408701519295509350906001600160401b0380821115620001e457600080fd5b818701915087601f830112620001f957600080fd5b8151818111156200020e576200020e62000179565b604051601f8201601f19908116603f0116810190838211818310171562000239576200023962000179565b816040528281528a868487010111156200025257600080fd5b600093505b8284101562000276578484018601518185018701529285019262000257565b60008684830101528096505050505050509250925092565b600181811c90821680620002a357607f821691505b602082108103620002c457634e487b7160e01b600052602260045260246000fd5b50919050565b601f8211156200031857600081815260208120601f850160051c81016020861015620002f35750805b601f850160051c820191505b818110156200031457828155600101620002ff565b5050505b505050565b81516001600160401b0381111562000339576200033962000179565b62000351816200034a84546200028e565b84620002ca565b602080601f831160018114620003895760008415620003705750858301515b600019600386901b1c1916600185901b17855562000314565b600085815260208120601f198616915b82811015620003ba5788860151825594840194600190910190840162000399565b5085821015620003d95787850151600019600388901b60f8161c191681555b5050505050600190811b01905550565b611c9380620003f96000396000f3fe60806040526004361061014b5760003560e01c806370a08231116100b6578063b88d4fde1161006f578063b88d4fde1461037f578063c87b56dd1461039f578063da0239a6146103bf578063e985e9c5146103d4578063f2fde38b146103f4578063f4a0a5281461041457600080fd5b806370a08231146102e2578063715018a6146103025780638da5cb5b1461031757806395d89b4114610335578063a22cb4651461034a578063a2309ff81461036a57600080fd5b80633ccfd60b116101085780633ccfd60b1461024457806342842e0e1461025957806355f804b3146102795780636352211e146102995780636817c76c146102b95780636a627842146102cf57600080fd5b806301ffc9a71461015057806306fdde0314610185578063081812fc146101a7578063095ea7b3146101df57806323b872dd1461020157806332cb6b0c14610221575b600080fd5b34801561015c57600080fd5b5061017061016b3660046115df565b610434565b60405190151581526020015b60405180910390f35b34801561019157600080fd5b5061019a610486565b60405161017c9190611653565b3480156101b357600080fd5b506101c76101c2366004611666565b610518565b6040516001600160a01b03909116815260200161017c565b3480156101eb57600080fd5b506101ff6101fa36600461169b565b61053f565b005b34801561020d57600080fd5b506101ff61021c3660046116c5565b610659565b34801561022d57600080fd5b50610236600581565b60405190815260200161017c565b34801561025057600080fd5b506101ff61068a565b34801561026557600080fd5b506101ff6102743660046116c5565b6107c0565b34801561028557600080fd5b506101ff610294366004611701565b6107db565b3480156102a557600080fd5b506101c76102b4366004611666565b61082e565b3480156102c557600080fd5b5061023660085481565b6101ff6102dd366004611773565b61088e565b3480156102ee57600080fd5b506102366102fd366004611773565b610a1a565b34801561030e57600080fd5b506101ff610aa0565b34801561032357600080fd5b506006546001600160a01b03166101c7565b34801561034157600080fd5b5061019a610ab2565b34801561035657600080fd5b506101ff61036536600461178e565b610ac1565b34801561037657600080fd5b50610236610ad0565b34801561038b57600080fd5b506101ff61039a3660046117e0565b610ae6565b3480156103ab57600080fd5b5061019a6103ba366004611666565b610b1e565b3480156103cb57600080fd5b50610236610bae565b3480156103e057600080fd5b506101706103ef3660046118bc565b610be4565b34801561040057600080fd5b506101ff61040f366004611773565b610c12565b34801561042057600080fd5b506101ff61042f366004611666565b610c88565b60006001600160e01b031982166380ac58cd60e01b148061046557506001600160e01b03198216635b5e139f60e01b145b8061048057506301ffc9a760e01b6001600160e01b03198316145b92915050565b606060008054610495906118ef565b80601f01602080910402602001604051908101604052809291908181526020018280546104c1906118ef565b801561050e5780601f106104e35761010080835404028352916020019161050e565b820191906000526020600020905b8154815290600101906020018083116104f157829003601f168201915b5050505050905090565b600061052382610cef565b506000908152600460205260409020546001600160a01b031690565b600061054a8261082e565b9050806001600160a01b0316836001600160a01b0316036105bc5760405162461bcd60e51b815260206004820152602160248201527f4552433732313a20617070726f76616c20746f2063757272656e74206f776e656044820152603960f91b60648201526084015b60405180910390fd5b336001600160a01b03821614806105d857506105d88133610be4565b61064a5760405162461bcd60e51b815260206004820152603d60248201527f4552433732313a20617070726f76652063616c6c6572206973206e6f7420746f60448201527f6b656e206f776e6572206f7220617070726f76656420666f7220616c6c00000060648201526084016105b3565b6106548383610d4e565b505050565b6106633382610dbc565b61067f5760405162461bcd60e51b81526004016105b390611929565b610654838383610e1b565b610692610f7f565b61069a610fd9565b47806106df5760405162461bcd60e51b81526020600482015260146024820152734e6f2066756e647320746f20776974686472617760601b60448201526064016105b3565b60006106f36006546001600160a01b031690565b6001600160a01b03168260405160006040518083038185875af1925050503d806000811461073d576040519150601f19603f3d011682016040523d82523d6000602084013e610742565b606091505b505090508061076457604051631d42c86760e21b815260040160405180910390fd5b6006546001600160a01b03166001600160a01b03167feaff4b37086828766ad3268786972c0cd24259d4c87a80f9d3963a3c3d999b0d836040516107aa91815260200190565b60405180910390a250506107be6001600755565b565b61065483838360405180602001604052806000815250610ae6565b6107e3610f7f565b600a6107f08284836119c4565b507f6741b2fc379fad678116fe3d4d4b9a1a184ab53ba36b86ad0fa66340b1ab41ad8282604051610822929190611a85565b60405180910390a15050565b6000818152600260205260408120546001600160a01b0316806104805760405162461bcd60e51b8152602060048201526018602482015277115490cdcc8c4e881a5b9d985b1a59081d1bdad95b88125160421b60448201526064016105b3565b610896610fd9565b6001600160a01b0381166108bd5760405163d92e233d60e01b815260040160405180910390fd5b600560095411156108e15760405163d05cb60960e01b815260040160405180910390fd5b6008543410156109115760085460405163b99e2ab760e01b815260048101919091523460248201526044016105b3565b60098054600181019091556109268282611032565b6008543411156109c65760085460009033906109429034611ab4565b604051600081818185875af1925050503d806000811461097e576040519150601f19603f3d011682016040523d82523d6000602084013e610983565b606091505b50509050806109c45760405162461bcd60e51b815260206004820152600d60248201526c1499599d5b990819985a5b1959609a1b60448201526064016105b3565b505b80826001600160a01b03167f3a8a89b59a31c39a36febecb987e0657ab7b7c73b60ebacb44dcb9886c2d5c8a600854604051610a0491815260200190565b60405180910390a350610a176001600755565b50565b60006001600160a01b038216610a845760405162461bcd60e51b815260206004820152602960248201527f4552433732313a2061646472657373207a65726f206973206e6f7420612076616044820152683634b21037bbb732b960b91b60648201526084016105b3565b506001600160a01b031660009081526003602052604090205490565b610aa8610f7f565b6107be600061104c565b606060018054610495906118ef565b610acc33838361109e565b5050565b60006001600954610ae19190611ab4565b905090565b610af03383610dbc565b610b0c5760405162461bcd60e51b81526004016105b390611929565b610b188484848461116c565b50505050565b6000818152600260205260409020546060906001600160a01b0316610b7c5760405162461bcd60e51b8152602060048201526014602482015273151bdad95b88191bd95cc81b9bdd08195e1a5cdd60621b60448201526064016105b3565b600a610b878361119f565b604051602001610b98929190611ad5565b6040516020818303038152906040529050919050565b6000806001600954610bc09190611ab4565b90506005811015610bdb57610bd6816005611ab4565b610bde565b60005b91505090565b6001600160a01b03918216600090815260056020908152604080832093909416825291909152205460ff1690565b610c1a610f7f565b6001600160a01b038116610c7f5760405162461bcd60e51b815260206004820152602660248201527f4f776e61626c653a206e6577206f776e657220697320746865207a65726f206160448201526564647265737360d01b60648201526084016105b3565b610a178161104c565b610c90610f7f565b80600003610cb157604051634dfba02360e01b815260040160405180910390fd5b600880549082905560408051828152602081018490527f2e1c9e000c6e8dda4d03536adb13b7cb6034ccff90d17f01de381e4d5097b5259101610822565b6000818152600260205260409020546001600160a01b0316610a175760405162461bcd60e51b8152602060048201526018602482015277115490cdcc8c4e881a5b9d985b1a59081d1bdad95b88125160421b60448201526064016105b3565b600081815260046020526040902080546001600160a01b0319166001600160a01b0384169081179091558190610d838261082e565b6001600160a01b03167f8c5be1e5ebec7d5bd14f71427d1e84f3dd0314c0f7b2291e5b200ac8c7c3b92560405160405180910390a45050565b600080610dc88361082e565b9050806001600160a01b0316846001600160a01b03161480610def5750610def8185610be4565b80610e135750836001600160a01b0316610e0884610518565b6001600160a01b0316145b949350505050565b826001600160a01b0316610e2e8261082e565b6001600160a01b031614610e545760405162461bcd60e51b81526004016105b390611b6c565b6001600160a01b038216610eb65760405162461bcd60e51b8152602060048201526024808201527f4552433732313a207472616e7366657220746f20746865207a65726f206164646044820152637265737360e01b60648201526084016105b3565b826001600160a01b0316610ec98261082e565b6001600160a01b031614610eef5760405162461bcd60e51b81526004016105b390611b6c565b600081815260046020908152604080832080546001600160a01b03199081169091556001600160a01b0387811680865260038552838620805460001901905590871680865283862080546001019055868652600290945282852080549092168417909155905184937fddf252ad1be2c89b69c2b068fc378daa952ba7f163c4a11628f55a4df523b3ef91a4505050565b6006546001600160a01b031633146107be5760405162461bcd60e51b815260206004820181905260248201527f4f776e61626c653a2063616c6c6572206973206e6f7420746865206f776e657260448201526064016105b3565b60026007540361102b5760405162461bcd60e51b815260206004820152601f60248201527f5265656e7472616e637947756172643a207265656e7472616e742063616c6c0060448201526064016105b3565b6002600755565b610acc828260405180602001604052806000815250611232565b600680546001600160a01b038381166001600160a01b0319831681179093556040519116919082907f8be0079c531659141344cd1fd0a4f28419497f9722a3daafe3b4186f6b6457e090600090a35050565b816001600160a01b0316836001600160a01b0316036110ff5760405162461bcd60e51b815260206004820152601960248201527f4552433732313a20617070726f766520746f2063616c6c65720000000000000060448201526064016105b3565b6001600160a01b03838116600081815260056020908152604080832094871680845294825291829020805460ff191686151590811790915591519182527f17307eab39ab6107e8899845ad3d59bd9653f200f220920489ca2b5937696c31910160405180910390a3505050565b611177848484610e1b565b61118384848484611265565b610b185760405162461bcd60e51b81526004016105b390611bb1565b606060006111ac83611366565b600101905060008167ffffffffffffffff8111156111cc576111cc6117ca565b6040519080825280601f01601f1916602001820160405280156111f6576020820181803683370190505b5090508181016020015b600019016f181899199a1a9b1b9c1cb0b131b232b360811b600a86061a8153600a850494508461120057509392505050565b61123c838361143e565b6112496000848484611265565b6106545760405162461bcd60e51b81526004016105b390611bb1565b60006001600160a01b0384163b1561135b57604051630a85bd0160e11b81526001600160a01b0385169063150b7a02906112a9903390899088908890600401611c03565b6020604051808303816000875af19250505080156112e4575060408051601f3d908101601f191682019092526112e191810190611c40565b60015b611341573d808015611312576040519150601f19603f3d011682016040523d82523d6000602084013e611317565b606091505b5080516000036113395760405162461bcd60e51b81526004016105b390611bb1565b805181602001fd5b6001600160e01b031916630a85bd0160e11b149050610e13565b506001949350505050565b60008072184f03e93ff9f4daa797ed6e38ed64bf6a1f0160401b83106113a55772184f03e93ff9f4daa797ed6e38ed64bf6a1f0160401b830492506040015b6d04ee2d6d415b85acef810000000083106113d1576d04ee2d6d415b85acef8100000000830492506020015b662386f26fc1000083106113ef57662386f26fc10000830492506010015b6305f5e1008310611407576305f5e100830492506008015b612710831061141b57612710830492506004015b6064831061142d576064830492506002015b600a83106104805760010192915050565b6001600160a01b0382166114945760405162461bcd60e51b815260206004820181905260248201527f4552433732313a206d696e7420746f20746865207a65726f206164647265737360448201526064016105b3565b6000818152600260205260409020546001600160a01b0316156114f95760405162461bcd60e51b815260206004820152601c60248201527f4552433732313a20746f6b656e20616c7265616479206d696e7465640000000060448201526064016105b3565b6000818152600260205260409020546001600160a01b03161561155e5760405162461bcd60e51b815260206004820152601c60248201527f4552433732313a20746f6b656e20616c7265616479206d696e7465640000000060448201526064016105b3565b6001600160a01b038216600081815260036020908152604080832080546001019055848352600290915280822080546001600160a01b0319168417905551839291907fddf252ad1be2c89b69c2b068fc378daa952ba7f163c4a11628f55a4df523b3ef908290a45050565b6001600160e01b031981168114610a1757600080fd5b6000602082840312156115f157600080fd5b81356115fc816115c9565b9392505050565b60005b8381101561161e578181015183820152602001611606565b50506000910152565b6000815180845261163f816020860160208601611603565b601f01601f19169290920160200192915050565b6020815260006115fc6020830184611627565b60006020828403121561167857600080fd5b5035919050565b80356001600160a01b038116811461169657600080fd5b919050565b600080604083850312156116ae57600080fd5b6116b78361167f565b946020939093013593505050565b6000806000606084860312156116da57600080fd5b6116e38461167f565b92506116f16020850161167f565b9150604084013590509250925092565b6000806020838503121561171457600080fd5b823567ffffffffffffffff8082111561172c57600080fd5b818501915085601f83011261174057600080fd5b81358181111561174f57600080fd5b86602082850101111561176157600080fd5b60209290920196919550909350505050565b60006020828403121561178557600080fd5b6115fc8261167f565b600080604083850312156117a157600080fd5b6117aa8361167f565b9150602083013580151581146117bf57600080fd5b809150509250929050565b634e487b7160e01b600052604160045260246000fd5b600080600080608085870312156117f657600080fd5b6117ff8561167f565b935061180d6020860161167f565b925060408501359150606085013567ffffffffffffffff8082111561183157600080fd5b818701915087601f83011261184557600080fd5b813581811115611857576118576117ca565b604051601f8201601f19908116603f0116810190838211818310171561187f5761187f6117ca565b816040528281528a602084870101111561189857600080fd5b82602086016020830137600060208483010152809550505050505092959194509250565b600080604083850312156118cf57600080fd5b6118d88361167f565b91506118e66020840161167f565b90509250929050565b600181811c9082168061190357607f821691505b60208210810361192357634e487b7160e01b600052602260045260246000fd5b50919050565b6020808252602d908201527f4552433732313a2063616c6c6572206973206e6f7420746f6b656e206f776e6560408201526c1c881bdc88185c1c1c9bdd9959609a1b606082015260800190565b601f82111561065457600081815260208120601f850160051c8101602086101561199d5750805b601f850160051c820191505b818110156119bc578281556001016119a9565b505050505050565b67ffffffffffffffff8311156119dc576119dc6117ca565b6119f0836119ea83546118ef565b83611976565b6000601f841160018114611a245760008515611a0c5750838201355b600019600387901b1c1916600186901b178355611a7e565b600083815260209020601f19861690835b82811015611a555786850135825560209485019460019092019101611a35565b5086821015611a725760001960f88860031b161c19848701351681555b505060018560011b0183555b5050505050565b60208152816020820152818360408301376000818301604090810191909152601f909201601f19160101919050565b8181038181111561048057634e487b7160e01b600052601160045260246000fd5b6000808454611ae3816118ef565b60018281168015611afb5760018114611b1057611b3f565b60ff1984168752821515830287019450611b3f565b8860005260208060002060005b85811015611b365781548a820152908401908201611b1d565b50505082870194505b505050508351611b53818360208801611603565b64173539b7b760d91b9101908152600501949350505050565b60208082526025908201527f4552433732313a207472616e736665722066726f6d20696e636f72726563742060408201526437bbb732b960d91b606082015260800190565b60208082526032908201527f4552433732313a207472616e7366657220746f206e6f6e20455243373231526560408201527131b2b4bb32b91034b6b83632b6b2b73a32b960711b606082015260800190565b6001600160a01b0385811682528416602082015260408101839052608060608201819052600090611c3690830184611627565b9695505050505050565b600060208284031215611c5257600080fd5b81516115fc816115c956fea26469706673582212205df60b2dacbaa93056635f3dc3101ed2d03971c6f81baeaf71f3e6c6e7a134e864736f6c63430008140033",
  "linkReferences": {},
  "deployedLinkReferences": {}
}